{
  "_format": "hh-sol-artifact-1",
  "contractName": "Escrow",
  "sourceName": "contracts/Escrow.sol",
  "abi": [
    {
      "inputs": [
        {
          "internalType": "address",
          "name": "_arbiter",
          "type": "address"
        },
        {
          "internalType": "address",
          "name": "_beneficiary",
          "type": "address"
        }
      ],
      "stateMutability": "payable",
      "type": "constructor"
    },
    {
      "anonymous": false,
      "inputs": [
        {
          "indexed": false,
          "internalType": "uint256",
          "name": "balance",
          "type": "uint256"
        }
      ],
      "name": "Approved",
      "type": "event"
    },
    {
      "inputs": [],
      "name": "approve",
      "outputs": [],
      "stateMutability": "nonpayable",
      "type": "function"
    },
    {
      "inputs": [],
      "name": "arbiter",
      "outputs": [
        {
          "internalType": "address",
          "name": "",
          "type": "address"
        }
      ],
      "stateMutability": "view",
      "type": "function"
    },
    {
      "inputs": [],
      "name": "beneficiary",
      "outputs": [
        {
          "internalType": "address",
          "name": "",
          "type": "address"
        }
      ],
      "stateMutability": "view",
      "type": "function"
    },
    {
      "inputs": [],
      "name": "depositor",
      "outputs": [
        {
          "internalType": "address",
          "name": "",
          "type": "address"
        }
      ],
      "stateMutability": "view",
      "type": "function"
    },
    {
      "inputs": [],
      "name": "isApproved",
      "outputs": [
        {
          "internalType": "bool",
          "name": "",
          "type": "bool"
        }
      ],
      "stateMutability": "view",
      "type": "function"
    }
  ],
  "bytecode": "0x608060405260405161070238038061070283398181016040528101906100259190610103565b336000806101000a81548173ffffffffffffffffffffffffffffffffffffffff021916908373ffffffffffffffffffffffffffffffffffffffff16021790555080600160006101000a81548173ffffffffffffffffffffffffffffffffffffffff021916908373ffffffffffffffffffffffffffffffffffffffff16021790555081600260006101000a81548173ffffffffffffffffffffffffffffffffffffffff021916908373ffffffffffffffffffffffffffffffffffffffff1602179055505050610188565b6000815190506100fd81610171565b92915050565b6000806040838503121561011657600080fd5b6000610124858286016100ee565b9250506020610135858286016100ee565b9150509250929050565b600061014a82610151565b9050919050565b600073ffffffffffffffffffffffffffffffffffffffff82169050919050565b61017a8161013f565b811461018557600080fd5b50565b61056b806101976000396000f3fe608060405234801561001057600080fd5b50600436106100575760003560e01c806312424e3f1461005c57806328f371aa1461006657806338af3eed14610084578063c7c4ff46146100a2578063fe25e00a146100c0575b600080fd5b6100646100de565b005b61006e610297565b60405161007b91906103e0565b60405180910390f35b61008c6102aa565b60405161009991906103c5565b60405180910390f35b6100aa6102d0565b6040516100b791906103c5565b60405180910390f35b6100c86102f4565b6040516100d591906103c5565b60405180910390f35b600260009054906101000a900473ffffffffffffffffffffffffffffffffffffffff1673ffffffffffffffffffffffffffffffffffffffff163373ffffffffffffffffffffffffffffffffffffffff161461016e576040517f08c379a00000000000000000000000000000000000000000000000000000000081526004016101659061041b565b60405180910390fd5b6001600260146101000a81548160ff02191690831515021790555060004790506000600160009054906101000a900473ffffffffffffffffffffffffffffffffffffffff1673ffffffffffffffffffffffffffffffffffffffff16826040516101d6906103b0565b60006040518083038185875af1925050503d8060008114610213576040519150601f19603f3d011682016040523d82523d6000602084013e610218565b606091505b505090508061025c576040517f08c379a0000000000000000000000000000000000000000000000000000000008152600401610253906103fb565b60405180910390fd5b7f3ad93af63cb7967b23e4fb500b7d7d28b07516325dcf341f88bebf959d82c1cb8260405161028b919061043b565b60405180910390a15050565b600260149054906101000a900460ff1681565b600160009054906101000a900473ffffffffffffffffffffffffffffffffffffffff1681565b60008054906101000a900473ffffffffffffffffffffffffffffffffffffffff1681565b600260009054906101000a900473ffffffffffffffffffffffffffffffffffffffff1681565b61032381610472565b82525050565b61033281610484565b82525050565b6000610345601883610461565b9150610350826104ba565b602082019050919050565b6000610368602883610461565b9150610373826104e3565b604082019050919050565b600061038b600083610456565b915061039682610532565b600082019050919050565b6103aa816104b0565b82525050565b60006103bb8261037e565b9150819050919050565b60006020820190506103da600083018461031a565b92915050565b60006020820190506103f56000830184610329565b92915050565b6000602082019050818103600083015261041481610338565b9050919050565b600060208201905081810360008301526104348161035b565b9050919050565b600060208201905061045060008301846103a1565b92915050565b600081905092915050565b600082825260208201905092915050565b600061047d82610490565b9050919050565b60008115159050919050565b600073ffffffffffffffffffffffffffffffffffffffff82169050919050565b6000819050919050565b7f4661696c656420746f2073656e64207468652066756e64730000000000000000600082015250565b7f4f6e6c7920617262697465722063616e20617070726f7665207468652074726160008201527f6e73616374696f6e000000000000000000000000000000000000000000000000602082015250565b5056fea2646970667358221220dbc769b0372b2bcdec528cd2c2512ce78792884eb92b411fe603002e4e52e0b264736f6c63430008040033",
  "linkReferences": {},
  "deployedLinkReferences": {}
}